:400000000080002011000000310700003107000008B5044B1A6803F53F5302331A6000F0A7FB00BFFA46004010B5054C237833B9044B13B10448AFF300800123237010BD65
:400040004881FF1F0000000090210000084B10B51BB108490848AFF300800848036803B910BD074B002BFBD0BDE81040184700BF000000004C81FF1F90210000C880FF1FA0
:40008000000000000000000030B595B062B600F0B1F900F0F5FB00F08FFFC34800F0B4FF052000F0E9FE00240CE0E0B200F00CFA38B12246BD4907A801F046FC07A800F0EC
:4000C000F9FB01347F2CF0DD0DF11B020F21182000F096F948B99DF81B20B54907A801F033FC07A800F0E6FB02E0B24800F0E2FB0DF11A022721182000F082F948B99DF8FB
:400100001A20AD4907A801F01FFC07A800F0D2FB02E0AA4800F0CEFB0DF119022021182000F06EF948B99DF81920A54907A801F00BFC07A800F0BEFB02E0A24800F0BAFBC5
:40014000A14800F0B7FB9DF81930572B14D057228DF819202021182000F09EF948B99DF819209A4907A801F0EFFB07A800F0A2FB02E0974800F09EFB0DF119022021182025
:4001800000F03EF948B99DF81920924907A801F0DBFB07A800F08EFB02E08A4800F08AFB06AA1F21182000F02BF948B99DF81820894907A801F0C8FB07A800F07BFB02E071
:4001C000864800F077FB002214AC04F8382D1F21182000F061F922461F21182000F010F948B99DF818207E4907A801F0ADFB07A800F060FB02E0794800F05CFB0DF1170219
:400200002321182000F0FCF848B99DF81720754907A801F099FB07A800F04CFB02E0724800F048FB182414AD05F8394D22462321204600F031F92A462321204600F0E0F85C
:4002400048B99DF81720694907A801F07DFB07A800F030FB02E0644800F02CFBA0238DF80830C0238DF815300022614B1A700DF103022721182000F0C3F838B99DF803300C
:4002800003F00703072B03D0002302E0002300E00123574A12781A427BD001AB02222821182000F0CBF800BB9DF805309DF8040043EA002040F30B10400001F017F838A366
:4002C000D3E9002301F078F801F088FA01F0D6FA8DF80900C0F307238DF80A30C0F307438DF80B30000E8DF80C0001AB02222A21182000F0A3F800BB9DF805309DF8040008
:4003000043EA002040F30B10400000F0EFFF24A3D3E9002301F050F801F060FA01F0AEFA8DF80D00C0F307238DF80E30C0F307438DF80F30000E8DF8100001AB02222C218E
:40034000182000F07BF800BB9DF805309DF8040043EA002040F30B10400000F0C7FF10A3D3E9002301F028F801F038FA01F086FA8DF81100C0F307238DF81230C0F30743C5
:400380008DF81330000E8DF814000E2102A800F0A3FA0022164B1A7069E700BFAFF3008005A3923A019D2340E104000094210000B4210000DC210000002200001C220000E9
:4003C0005822000078220000B4220000D022000008230000442300007C230000A4230000EC2300002824000048240000842400007081FF1F08B500F0C9FA002008BD00BF97
:40040000F8B506460D461746002100F03BFC044668B9284600F0C8FC044640B90121304600F070FC044610B900F0EAFC387000F09FFC201C18BF0120F8BD00BF2DE9F041FC
:4004400080460F4614461E46002100F01BFC0546D0B947F0800000F0A7FC0546A0B90121404600F04FFC054670B9013CE4B205E0012000F0C5FC3055013CE4B2002CF7D18C
:40048000002000F0BDFC307000F072FC281C18BF0120BDE8F08100BF70B50D461646002100F0F0FB044640B9284600F07DFC044618B9304600F078FC044600F059FC201CBA
:4004C00018BF012070BD00BF10B5002100F0DAFB044600F04DFC0CB9012010BD002010BD08B500F025FD0122014B1A7008BD00BF7081FF1FFEE700BFF0B40022174611E037
:4005000050F82760F3B226F0FF0608E001EB420511F812406D78A5550132013BDBB2002BF4D10137132FEBD9F0BC7047064B1B78DBB203F00701054A11701B090132137034
:400540004422034B1A707047CF0100496E5800407658004008B50A46002101F0ECF908BD38B59B22264B1A801823264A137040F2AF4102321180023213700222224B1A70F4
:4005800008224FF040231A70032103F5007319701E4B1B78DBB21E490B701E4B1A8041F25122023B1A80002419250CE01A4B1B7803F0010343EA440404F003044FF4F07092
:4005C00000F032FD013D0DB1032CEFD115B90320FFF790FF114B4FF480721A8007221A7000220F490A704820023108701A700222033B1A700B4A137843F00303137038BD8F
:4006000080400040824000400043004008010049A146004022420040254200400440004006400040A243004008B501F079F908BD38B572B6314A137843F004031370002461
:400640000CE02F4D630019194A0011462A44084691882858FFF77EFF0134E4B20A2CF0D900240CE02648A20011194B000344B3F84C20996C586CFFF7D7FF0134E4B2012CCA
:40068000F0D920494FF09040FFF736FF1E4A137843F0020313701032137843F0020313701A4C237843F040032370A2F58632513A137843F0100313700A2215491548FFF783
:4006C000B3FF082214491548FFF7AEFF144A137843F008031370134D61232B70FFF740FF81232B700122104B1A70FFF71FFF0E2221460E48FFF798FF38BD00BFE84600406C
:40070000B82400005000004803500140A043004064030048C05100407003004812510040224300400048004004000840B043004008B501F0C9F803680C2B00D1FEE7FEE7D8
:4007400008B5094B1A681044084BC31A802B02DC054B186005E001F0B7F80C2303604FF0FF32104608BD00BFCC80FF1F8881FF1F08B5104E104D16E029686B68AC68002217
:4007800004E051F8040B43F8040B0432A242F8D1E868002203E0002143F8041B04328242F9D11035013E002EE6D101F093F8FFF76BFCFEE7010000006C25000008B5104A6C
:4007C000104B1A60104A136843F40073136000230AE0032B03D80D4A52F8231000E00C490C4A42F8231001332F2BF2D90A4B1A780A4B1A70074A0A4B1A60FFF719FF08BD3E
:400800000004FA050CED00E014ED00E000000000310700000080FF1FBC760040C080FF1F08ED00E07222074B1A70202203331A700622603B1A70472210331A7000224F33E7
:400840001A7070478865004010B500F0F5FB04460A4A137843F0200313700332137843F010031370013A137843F01003137000F0F3FA204600F0E4FB10BD00BF9865004070
:4008800008B5054B1B7823B9FFF7CCFF0122024B1A70FFF7D9FF08BD6481FF1F034B1B7813F0040FFAD1024B187070476A6500404A65004038B5074B1B782BB938BDFFF77E
:4008C000EDFF0134A4B201E005460024285D0028F5D138BD6481FF1F084B1B7833B97047305DFFF7DBFF0134E4B203E070B50D4606460024AC42F3D370BD00BF6481FF1FA7
:4009000038B50222114B1A7081220E3B1A70082202331A700F2511331D70002401331C704FF400420A4B1A600721284600F0CEFA0849284600F0B6FA1022074B1A70074B17
:400940001C70074B1C70074B1C7038BDD649004080E100E0B50900007181FF1F8181FF1F7481FF1F7581FF1F08B500F065FB064A137843F0040313701032137843F00403D9
:40098000137000F05DFB08BDA543004008B5074B1B7823B9FFF7B4FF0122044B1A70FFF7E3FF4FF40042024B1A6008BD6681FF1F00E100E038B5A54B1C78A54B1B7813F0B6
:4009C000400F00F03A81E4B214F0010F00F01D819F4B1B78453B052B00F21481DFE813F006008200120112010600DF0004F0DF0504F00A04082C42D1954B1B78DBB2452B23
:400A000035D1944B1B7813F0FF0F10D0924B1B681B78DBB2914A137004228C4B1A7001228F4B1A7046228A4B1A702C46EDE08D4B1B7813F0020F0DD08B4A137843F00A035F
:400A400013706022824B1A704FF40042874B1A602C46DAE0864A137843F0100313701022844B1A700422023B1A702C46CDE00022764B1A704A22764B1A702C46C5E00A2CF1
:400A80002BD1794A137843F0A0031370754B1B7813F0020F14D06E4B1B7813F0080F01D0092300E00A23704A11780B4313706022674B1A704FF400426C4B1A602C46A4E05A
:400AC0006B4A137843F0100313701022694B1A700422023B1A702C4697E0002000F0CAF92C4692E014F0020F36D15D4B1A78D2B2584B1B78DBB29A4210D2594A1378DBB2DA
:400B000055490968CB5CDBB254490B7004214F4B197013780133DBB2137076E0514B1B7813F0020F0CD0504A137843F00A0313706022474B1A704FF400424C4B1A6064E0EE
:400B40004B4A137843F0100313701022494B1A700422023B1A7058E0424B1B7813F0020F0CD0414A137843F09A0313706022384B1A704FF400423D4B1A6046E03C4A137851
:400B800043F01003137010223A4B1A700422023B1A70354A137843F09003137035E0364A1378DBB2354908682C490978C9B2C15413780133DBB213701278D2B2304B1B78DF
:400BC000DBB29A4203D21022204B1A701DE0254B1B7813F0020F0CD0234A137843F00903137060221A4B1A704FF400421F4B1A600BE01F4A137843F0100313700022134BE4
:400C00001A7002E0002000F035F914F0200F1CD00F4B1B7813F0080F01D0012300E00223114A11780B431370114A137803F0EF0313701022064B1A7038BD054B1B7813F0FF
:400C4000100F02D11022024B1A7038BDD74900407181FF1F7681FF1F7881FF1FD84900407581FF1F8081FF1F8181FF1F80E100E0D6490040D94900407481FF1F7C81FF1F04
:400C80008281FF1F1A4B1B78DBB2102B29D1194B1B7813F0080F26D14FF40042164B1A604000C0B229B140F001004922104B1A7002E045220E4B1A70104B1870012201337E
:400CC0001A700F4B1B7813F0010FFAD00C4B1B7803F00A030A2B08D11022054B1A700320704702207047012070470020704700BF7181FF1FD949004080E100E0D849004067
:400D0000D7490040164B1B7813F0040F23D04000C0B229B140F001004922124B1A7002E04522104B1A70104B1870122201331A700422023B1A700D4B1B7813F0010FFAD08F
:400D40000A4B1B7803F00A030A2B06D11022054B1A7003207047022070470020704700BFD94900407181FF1FD8490040D74900400A4B1B7813F0040F0ED01023074A137014
:400D80000421023A1170064A1370064B1B7813F0210FFAD00020704702207047D94900407181FF1FD7490040114B1B7813F0040F1BD0104B18700422013B1A7046220E4B9B
:400DC0001A700E4B1B7813F0010FFAD00B4B1B7813F0020F04D16022074B1A70002070476022054B1A70032070470220704700BFD9490040D84900407181FF1FD749004098
:400E0000114B1B7813F0040F1BD0104B1B78DBB2492B05D100220E4B1A704A220B4B1A700B4B1B7813F0010FFAD00A4B1B78DBB218B11021064A117004E06021034A117073
:400E400000E0002318467047D94900407181FF1FD7490040D8490040054A137843F0010313701032137843F001031370704700BFA243004001BE704710B5044605E0084BB4
:400E8000186800F0D1F8A4F50044B4F5004FF6D8034B586800FB04F000F0C6F810BD00BFD080FF1F70B504460E46074B1D681F2802D90020FFF7DEFF04F01F04103455F85A
:400EC000240045F8246070BD08ED00E038B504460D46072902D90020FFF7CCFF1F2C02D90020FFF7C7FF04F01F0000F1604000F564406D01EDB2057038BD00BF084A137843
:400F000043F0010313701032137843F00103137002F64D32137843F001031370704700BFA3430040014B1870704700BF034F0040014B1878704700BF034F0040014B188074
:400F4000704700BF044F0040014B1880704700BF064F004008B5154A137803F0010313700232137803F0FC031370114B1A7802F0CF021A701A7842F030021A701A7802F0E5
:400F8000F0021A701A7842F00F021A70094A137843F0010313706320FFF7D0FF6320FFF7D3FF0820FFF7BEFF08BD00BF004F00400B4F0040014F004008B5054B1B7823B997
:400FC000FFF7C8FF0122024B1A70FFF797FF08BD6781FF1F014B1B681864704708ED00E04001C0B2014B1870704700BF00E400E00122014B1A60704700E100E00122014B7B
:401000001A60704780E100E010B50446FFF7F6FF2046FFF7DFFF0720FFF7E2FFFFF7E8FF10BD00BF000000000230800803D000BF01380046FCD17047EFF3108072B6704703
:4010400080F31088704700BF81F0004102E000BF83F0004330B54FEA41044FEA430594EA050F08BF90EA020F1FBF54EA000C55EA020C7FEA645C7FEA655C00F0E2804FEACB
:401080005454D4EB5555B8BF6D420CDD2C4480EA020281EA030382EA000083EA010180EA020281EA0303362D88BF30BD11F0004F4FEA01314FF4801C4CEA113102D040420A
:4010C00061EB410113F0004F4FEA03334CEA133302D0524263EB430394EA050F00F0A780A4F10104D5F1200E0DDB02FA0EFC22FA05F2801841F1000103FA0EF2801843FA56
:4011000005F359410EE0A5F120050EF1200E012A03FA0EFC28BF4CF0020C43FA05F3C01851EBE37101F0004507D54FF0000EDCF1000C7EEB00006EEB0101B1F5801F1BD318
:40114000B1F5001F0CD349085FEA30004FEA3C0C04F101044FEA445212F5800F80F09A80BCF1004F08BF5FEA500C50F1000041EB045141EA050130BD5FEA4C0C404141EB01
:40118000010111F4801FA4F10104E9D191F0000F04BF01460020B1FA81F308BF2033A3F10B03B3F120020CDA0C3208DD02F1140CC2F10C0201FA0CF021FA02F10CE002F119
:4011C0001402D8BFC2F1200C01FA02F120FA0CFCDCBF41EA0C019040E41AA2BF01EB0451294330BD6FEA04041F3C1CDA0C340EDC04F11404C4F1200220FA04F001FA02F3F9
:4012000040EA030021FA04F345EA030130BDC4F10C04C4F1200220FA02F001FA04F340EA0300294630BD21FA04F0294630BD94F0000F83F4801306BF81F480110134013DE6
:401240004EE77FEA645C18BF7FEA655C29D094EA050F08BF90EA020F05D054EA000C04BF1946104630BD91EA030F1EBF0021002030BD5FEA545C05D14000494128BF41F065
:40128000004130BD14F580043CBF01F5801130BD01F0004545F0FE4141F470014FF0000030BD7FEA645C1ABF194610467FEA655C1CBF0B46024650EA013406BF52EA03358B
:4012C00091EA030F41F4002130BD00BF90F0000F04BF0021704730B54FF4806404F132044FF000054FF0000150E700BF90F0000F04BF0021704730B54FF4806404F1320423
:4013000010F0004548BF40424FF000013EE700BF42004FEAE2014FEA31014FEA02701FBF12F07F4393F07F4F81F06051704792F0000F14BF93F07F4F704730B54FF4607413
:4013400001F0004521F0004120E700BF50EA010208BF704730B54FF000050AE050EA010208BF704730B511F0004502D5404261EB41014FF4806404F132045FEA915C3FF4C9
:40138000DCAE4FF003025FEADC0C18BF03325FEADC0C18BF033202EBDC02C2F1200300FA03FC20FA02F001FA03FE40EA0E0021FA02F11444C1E600BF70B54FF0FF0C4CF490
:4013C000E06C1CEA11541DBF1CEA135594EA0C0F95EA0C0F00F0DEF82C4481EA030621EA4C5123EA4C5350EA013518BF52EA033541F4801143F4801338D0A0FB02CE4FF0BE
:401400000005E1FB02E506F00042E0FB03E54FF00006E1FB03569CF0000F18BF4EF0010EA4F1FF04B6F5007F64F5407404D25FEA4E0E6D4146EB060642EAC62141EA555197
:401440004FEAC52040EA5E504FEACE2EB4F1FD0C88BFBCF5E06F1ED8BEF1004F08BF5FEA500E50F1000041EB045170BD06F0004646EA010140EA020081EA0301B4EB5C04F3
:40148000C2BFD4EB0C0541EA045170BD41F480114FF0000E013C00F3AB8014F1360FDEBF002001F0004170BDC4F10004203C35DA0C341BDC04F11404C4F1200500FA05F326
:4014C00020FA04F001FA05F240EA020001F0004221F0004110EBD37021FA04F642EB06015EEA430E08BF20EAD37070BDC4F10C04C4F1200500FA04F320FA05F001FA04F24A
:4015000040EA020001F0004110EBD37041F100015EEA430E08BF20EAD37070BDC4F1200500FA05F24EEA020E20FA04F301FA05F243EA020321FA04F001F0004121FA04F268
:4015400020EA020000EBD3705EEA430E08BF20EAD37070BD94F0000F0FD101F00046400041EB010111F4801F08BF013CF7D041EA060195F0000F18BF704703F000465200F1
:4015800043EB030313F4801F08BF013DF7D043EA0603704794EA0C0F0CEA135518BF95EA0C0F0CD050EA410618BF52EA4306D1D181EA030101F000414FF0000070BD50EA8E
:4015C000410606BF1046194652EA430619D094EA0C0F02D150EA013613D195EA0C0F05D152EA03361CBF104619460AD181EA030101F0004141F0FE4141F470014FF00000B5
:4016000070BD41F0FE4141F4780170BD70B54FF0FF0C4CF4E06C1CEA11541DBF1CEA135594EA0C0F95EA0C0F00F0A7F8A4EB050481EA030E52EA03354FEA013100F08880D5
:401640004FEA03334FF0805545EA131343EA12634FEA022245EA111545EA10654FEA00260EF000419D4208BF964244F1FD0404F5407402D25B084FEA3202B61A65EB0305CF
:401680005B084FEA32024FF480104FF4002CB6EB020E75EB030E22BFB61A754640EA0C005B084FEA3202B6EB020E75EB030E22BFB61A754640EA5C005B084FEA3202B6EBFF
:4016C000020E75EB030E22BFB61A754640EA9C005B084FEA3202B6EB020E75EB030E22BFB61A754640EADC0055EA060E18D04FEA051545EA16754FEA06164FEAC30343EA0A
:4017000052734FEAC2025FEA1C1CC0D111F4801F0BD141EA00014FF000004FF0004CB6E711F4801F04BF01430020B4F1FD0C88BFBCF5E06F3FF6AFAEB5EB030C04BFB6EB5D
:40174000020C5FEA500C50F1000041EB045170BD0EF0004E4EEA113114EB5C04C2BFD4EB0C0541EA045170BD41F480114FF0000E013C90E645EA060E8DE60CEA135594EA4C
:401780000C0F08BF95EA0C0F3FF43BAF94EA0C0F0AD150EA01347FF434AF95EA0C0F7FF425AF104619462CE795EA0C0F06D152EA03353FF4FDAE1046194622E750EA4106AC
:4017C00018BF52EA43067FF4C5AE50EA41047FF40DAF52EA43057FF4EBAE12E74FEA4102B2F1E04324BFB3F5001CDCF1FE5C0DD901F0004C4FEAC0024CEA5070B2F1004F5A
:4018000040EB830008BF20F00100704711F0804F21D113F13872BCBF01F00040704741F480114FEA5252C2F11802C2F1200C10FA0CF320FA02F018BF40F001004FEAC1230F
:401840004FEAD32303FA0CFC40EA0C0023FA02F34FEA4303CCE77FEA625307D150EA01331EBF4FF0FE4040F44000704701F0004040F0FE4040F40000704700BF4FEA40020D
:40188000B2F1FE4F0FD34FF09E03B3EB12620DD94FEA002343F0004310F0004F23FA02F018BF404270474FF00000704712F1610F01D1420205D110F0004008BF6FF0004043
:4018C00070474FF000007047014B1868704700BF4081FF1F0E4B70B51E460E4C0025E41AA410A54204D056F8253098470135F8E700F02AFE084B094C1E46E41AA4100025BA
:40190000A54204D056F8253098470135F8E770BD5425000054250000542500005C25000010B5431E0A44914204D011F8014B03F8014FF8E710BD03460244934202D003F8A4
:40194000011BFAE7704700000EB400B54FF402719CB0ADF814106FF00041049107914FF6FF711DAB02900690084853F8042BADF81610006802A9019300F064F8029B0022B8
:401980001A701CB05DF804EB03B070474081FF1F2DE9F0478E6882469E420C46914698463ED88A8912F4906F3AD02568096902236F1A656905EB450595FBF3F57B1C4344CF
:4019C0009D4238BF1D4653050FD5294600F040FB064698B13A462169FFF7A2FFA38923F4906343F08003A38113E02A4600F08EFB064670B92169504600F0DEFA0C23CAF868
:401A00000030A3894FF0FF3043F04003A381BDE8F08726613E44266046466561ED1BA560464528BF464649463246206800F0A8FAA36800209B1BA36023681E442660BDE81D
:401A4000F08700002DE9F04F9DB003938B8980461C060D4616460DD50B695BB9402100F0F7FA2860286118B90C23C8F80030CDE040236B610023099320238DF82930DFF8CC
:401A80009CB130238DF82A3037463C4614F8013B1BB9B7EB060910D003E0252BF9D02746F3E74B46324629464046FFF771FF013000F0A780099B4B4409933B78002B00F06F
:401AC000A08000234FF0FF3204930793059206938DF853301A930126052221784E4800F041FA671C049B38B14B4A3C46801A06FA00F018430490EFE7D90644BF20228DF85B
:401B000053201A0744BF2B228DF8532022782A2A03D0079A00210A200BE0039A111D12680391002A10DA524243F00200079204900BE027463B780134303B092B03D800FB99
:401B400002320121F5E701B107923B782E2B1ED17B782A2B0AD1039B02371A1D1B680392002BB8BF4FF0FF33059310E0002319460593781C0A2407463A780130303A092A60
:401B800003D804FB01210123F5E703B1059103223978224800F0E6F940B14023CBEB000003FA00F0049B013718430490397806221B487E1C8DF8281000F0D4F988B1194B26
:401BC00033B9039B073323F007030833039314E003AB00932A46144B04A94046AFF3008007E003AB00932A460F4B04A9404600F093F8B0F1FF3F824603D0099B53440993E9
:401C000042E7AB895B0601D4099801E04FF0FF301DB0BDE8F08F00BF12250000182500001C25000000000000911900002DE9F04791461F460A698B6806469342B8BF134632
:401C4000C9F8003091F843200C46DDF8208012B10133C9F800302368990642BFD9F800300233C9F80030256815F0060510D104F1190A07E00123524639463046C047013020
:401C80001AD00135E368D9F800209B1A9D42F1DB94F843302268003318BF012392060FD5E118302081F843005A1C94F845102244023382F8431003E04FF0FF30BDE8F08704
:401CC00004F1430239463046C0470130F4D02268D9F80050E36802F00602042A08BF5D1B2269A3680CBF25EAE57500259342C4BF9B1AED184FF000091A344D4509D0012336
:401D0000224639463046C0470130D5D009F10109F3E70020BDE8F0872DE9F04317460A7E85B06E2A984606460C460C9B01F1430E00F0AE8011D8632A22D009D8002A00F06D
:401D4000BB80582A40F0CA8081F84520834955E0642A1ED0692A1CD0C0E0732A00F0B08009D86F2A2ED0702A40F0B8800A6842F020020A603EE0752A24D0782A3AD0ADE061
:401D80001A6801F14205111D1960136884F84230A8E021681A6811F0800F02D0111D196008E011F0400F02F10401196002D0B2F9003000E01368002B3CDA2D225B4284F862
:401DC000432037E021681A6811F0800F02D0111D196007E011F0400F02F10401196001D0138800E01368227E5C496F2A14BF0A2208221BE078225A4984F8452022681868BC
:401E000012F0800F00F104051D6003D1550601D5038800E00368D00744BF42F0200222601BB9226822F0200222601022002084F8430001E049490A226568002DA56008DB69
:401E4000206820F0040020602BB9002D7DD175460CE0002B79D07546B3FBF2F002FB1033CB5C05F8013D03460028F5D1082A0BD12368DA0708D5236962689A42DEBF30232F
:401E800005F8013C05F1FF35C5EB0E0323612EE008681A6810F0800F496903D0101D1860136808E010F0400F02F104001860136801D0198000E0196000232361754616E009
:401EC0001A68111D1960156800216268284600F049F808B1401B6060636804E004F1420584F8422001232361002384F84330CDF800803B4603AA21463046FFF797FE01304F
:401F000002D14FF0FF3026E023692A4639463046C0470130F5D023689B0710D5002504F1190907E001234A4639463046C0470130E7D00135E368039A9B1A9D42F2DBE068D8
:401F4000039B9842B8BF184605E00B7804F1420584F842308AE705B0BDE8F083232500003425000010B5C9B202449042034605D01C7801308C42F8D1184610BD002010BDB9
:401F8000884210B501EB020301D8421E0BE09842FBD28118D21AD34204D013F8014D01F8014DF8E710BD994204D011F8014B02F8014FF8E710BD000038B50546002944D0AD
:401FC00051F8043C0C1F002BB8BFE41800F0D4F81E4A1368114613B96360146030E0A3420DD92268A018834201BF18685B681218226063600C6023E0A24203D813465A68F9
:40200000002AF9D118681918A1420BD12168014458188242196013D110685268014419605A600DE002D90C232B6009E021686018824201BF106852680918216062605C60F1
:402040002846BDE8384000F098B838BD6C81FF1F70B5CD1C25F0030508350C2D38BF0C25002D064601DBA94202D90C23336046E000F082F8234B1C681A462146A1B10B68E1
:402080005B1B0ED40B2B03D90B60CC18CD501EE08C420BBF63684B681360636018BF0C4615E00C464968E9E7174C23681BB9304600F052F820602946304600F04DF8431CA4
:4020C00018D0C41C24F00304A0420DD12560304600F053F804F10B00231D20F00700C31A0ED05A42E25070BD211A304600F034F80130EBD10C233360304600F03EF80020C2
:4021000070BD00BF6C81FF1F6881FF1FF8B5074615460E4621B91146BDE8F840FFF798BF1AB9FFF749FF2846F8BD00F027F885420ED929463846FFF78BFF044650B131467D
:402140002A46FFF7EDFB31463846FFF735FF01E03046F8BD2046F8BD38B5064C0023054608462360FEF7ECFA431C02D1236803B12B6038BD8481FF1F7047704751F8040C97
:402180000028BEBF091851F8043CC01804387047000000004465766963652030782530325820697320636F6E6E65637465640D0A0000000057484F20414D20492052454725
:4021C0003A20307825303258205B45787065637465643A20307833335D0D0A004572726F72206F6363757272656420647572696E672049324320636F6D6D0D0A000000008A
:402200005354415455532052454749535445523A203078253032580D0A0000004572726F72206F6363757272656420647572696E672049324320636F6D6D20746F2072656F
:402240006164207374617475732072656769737465720D0A00000000434F4E54524F4C20524547495354455220313A203078253032580D0A000000004572726F72206F634E
:4022800063757272656420647572696E672049324320636F6D6D20746F207265616420636F6E74726F6C20726567697374657220310D0A000D0A57726974696E67206E658B
:4022C000772076616C7565732E2E0D0A00000000434F4E54524F4C2052454749535445522031207375636365737366756C6C79207772697474656E2061733A203078253090
:4023000032580D0A000000004572726F72206F6363757272656420647572696E672049324320636F6D6D20746F2073657420636F6E74726F6C2072656769737465722031C2
:402340000D0A0000434F4E54524F4C2052454749535445522031206166746572206F7665727772697465206F7065726174696F6E3A203078253032580D0A000054454D50F7
:402380004552415455524520434F4E4649472052454749535445523A203078253032580D0A0000004572726F72206F6363757272656420647572696E672049324320636FB8
:4023C0006D6D20746F20726561642074656D706572617475726520636F6E6669672072656769737465720D0A0000000054454D504552415455524520434F4E4649472052AE
:4024000045474953544552206166746572206265696E6720757064617465643A203078253032580D0A000000434F4E54524F4C20524547495354455220343A2030782530E2
:4024400032580D0A000000004572726F72206F6363757272656420647572696E672049324320636F6D6D20746F207265616420636F6E74726F6C207265676973746572344E
:402480000D0A0000434F4E54524F4C2052454749535445522034206166746572206265696E6720757064617465643A203078253032580D0A00000000C84900401900004FFC
:4024C00000400C00005100401000205100405000F0510040100000000140001000140140000480180140800300400140000A004C014000020050014020000000605200409A
:40250000DC020048060000180140E402004880004300232D302B2000686C4C00656667454647003031323334353637383941424344454600303132333435363738396162C4
:402540006364656600000000F8B500BFF8BC08BC9E4670474D000000BD070000F8B500BFF8BC08BC9E4670472900000080250000C880FF1F800000004000000000000000C6
:40258000000000008881FF1F0000E02EC05D00001800000000366E0100000000000000000000000000000000000000000000000000000000000000001025000000000000D7
:4025C0000000000000000000000000000000000000000000000000000000000000000000000000000000000000000000000000000000000000000000E080FF1F000000005D
:40260000000000000000000000000000000000000000000000000000000000000000000000000000000000000000000000000000000000000000000000000000000000009A
:40264000000000000000000000000000000000000000000000000000000000000000000000000000000000000000000000000000000000000000000000000000000000005A
:40268000000000000000000000000000000000000000000000000000000000000000000000000000000000000000000000000000000000000000000000000000000000001A
:4026C00000000000000000000000000000000000000000000000000000000000000000000000000000000000000000000000000000000000000000000000000000000000DA
:020000040003F7
:0200000480007A
:40000000024F004003650040040401400205014003150140011701400F18014034190140681A0140501B014002400140014101400942014001430140044801400F490140A2
:40004000094C01400E4D0140025001400251014001100A4B88728A0F8B3839083F0459045F0123108710E008E401EA01E60C8002820C8C048E0294089602980FA80FAC0147
:40008000B00EB401BB80D804D904DF01014204110641071008080A040E480F22100A14081540170419021B111C141D081E421F0820012510260627012C402D402F2836863F
:4000C00037103E4A3F2044404508464047404D044E024F2057205C046C0A6E14760B7714C0F9C2F6C4E3CAF0CCF0CEF0D0D0D230D640E60C000C02710414050307140B1539
:400100000C100EAC0F081009111312D0130C150A1603171418DC19201A221D402113230426202C102E40310F321F3340351036E037203A803B023F544052410145EB470C89
:40014000481349FF4AFF4BFF4EF04F44500C5401580459045A045B045F0166C06A406B02810882088315842C8518864389188C718E0E920C93209510970CA071A206A302C2
:40018000A480A613A720B0C0B106B20FB320B430B518B701B822BA08BE10BF05C002C604C9FFCA07CBFFCC40CD20CEF0CF05D008D418D804D904DA04DB04DF01E040E1A80C
:4001C000E240E320022203800584068009020A200B080D02118012101502161019801A201B801C401D261F042004214122062508268027482B802D0630803104321234087A
:40020000370938483A103E1643A045284620488049014A22500455405690572059215A485E02662067018004814082408A028C048D60910492149301954099029B019C08ED
:400240009F40A201A680B510B701C0BDC21EC435CAC1CCCFCEEED02CD208D68FD830E009E401EA013280CC10A68012803E105B088708A680C410CE20D640E2109610800188
:4002800085089610E63012201640700175088220864090029908AA10C430DC80DE20E010E480EA801280132014407B107F4082808440C40EDE0310401280710281028310D7
:4002C000874088408E809780A710AB20C408DC01E20310011C01000203C000000280000043000000FF1000000C080000F3000C23081C00611F00E080003CE3421C18E300C1
:40030000C3000004007F00000400008082670018410400002C380F1F1080C04000800A080000101036040500010EC00009FFFFFF62A0F0410C000000000002120404040462
:40034000000000010000000000004002001030100010101200000000000000000000000000000000830040808300830000000000000B0B0000000000000000000000000059
:40038000000000000000000000000000000000000000000000000000000000000000000000000000000000000000000000000000000000000000000000000000000000003D
:4003C00000000000000000000000000000000000000000000000000000000000000000000000000000000000000000000000000000000000000000000000000000000000FD
:4004000000000000000000000000000000000000000000000000000000000000000000000000000000000000000000000000000000000000000000000000000000000000BC
:40044000000000000000000000000000000000000000000000000000000000000000000000000000000000000000000000000000000000000000000000000000000000007C
:0200000490006A
:0400000000004005B7
:0200000490105A
:04000000BC90ACAF55
:0200000490303A
:02000000B898AE
:0200000490402A
:4000000000000000000000000000000000000000000000000000000000000000000000000000000000000000000000000000000000000000000000000000000000000000C0
:400040000000000000000000000000000000000000000000000000000000000000000000000000000000000000000000000000000000000000000000000000000000000080
:400080000000000000000000000000000000000000000000000000000000000000000000000000000000000000000000000000000000000000000000000000000000000040
:4000C0000000000000000000000000000000000000000000000000000000000000000000000000000000000000000000000000000000000000000000000000000000000000
:0200000490501A
:0C00000000012E16106900012E24C90119
:00000001FF